:100000000C946D010C949E010C949E010C949E0125
:100010000C949E010C949E010C949E010C949E01E4
:100020000C949E010C949E010C949E010C949E01D4
:100030000C949E010C949E010C949E010C949E01C4
:100040000C949E010C949E010C949E010C949E01B4
:100050000C949E010C949E010C949E010C947C05C2
:100060000C949E010C94AF0A0C949F0B0C949E016F
:100070000C949E010C949E010C949E010C949E0184
:100080000C949E010C949E010C949E010C949E0174
:100090000C94E30A0C94DE0B0C949E010C949E01CC
:1000A0000C949E010C949E010C949E010C949E0154
:1000B0000C949E010C949E010C949E010C949E0144
:1000C0000C949E010C949E010C949E010C94170BB1
:1000D0000C941D0C0C949E010C944B0B0C945C0C1A
:1000E0000C949E01550371038F03AB03C703E30315
:1000F000FF03B404B4044E04B404B404B404B4045C
:10010000B404B404B404B404B404B404B404B4042F
:10011000B404B404A70449064C063F06430683060C
:10012000500654065A065E06620668066C0670069D
:10013000830676067A067E060C9471030C947E0B79
:100140000C945E060C94FF030C9449060C94AB03CC
:100150000C948F030C9455030C94580A0C9443068A
:100160000C94C7030C94A7040C9476060C947E069A
:100170000C94CB040C9468060C9483060C94040A2B
:100180000C94E3030C9462060C9470060C945006D5
:100190000C941C0D0C946C060C944C060C945A0692
:1001A0000C9454060C943F060C944D0A0C94EF04E6
:1001B0000C94140A0C942D0A0C944E040C94B40460
:1001C0000C94F3060C9413030C947A060000090AAD
:1001D00002080B0C0D0706030401000000000000DC
:1001E000000000000000000000000000000000000F
:1001F000000000000000000011100F0000000000CF
:1002000000000000000000000000000000000000EE
:10021000000001021020200808102040102040801B
:1002200002010201080402010102040810204080BA
:100230008040201008040201800402018040201048
:100240000804020108040201010204081020408091
:10025000010204081020408005050505070508086F
:100260000808020202020A0A080804040404010140
:100270000101010101010303030303030303040755
:1002800007070C0C0C0C0C0C0C0C020202020606EC
:100290000606060606060B0B0B0B0B0B0B0B0000E2
:1002A0002200250028002B002E003100340002011E
:1002B0000000050108010B010000210024002700B7
:1002C0002A002D0030003300010100000401070165
:1002D0000A011303CB041C0DEF0411241FBECFEF42
:1002E000D1E2DEBFCDBF00E00CBF13E0A0E0B2E082
:1002F000E2E3F2E200E00BBF02C007900D92AA3BDE
:10030000B107D9F726E0AAEBB3E001C01D92AC38E3
:10031000B207E1F712E0C8EDD2E000E006C0229794
:100320000109FE010BBF0E940311C23DD10780E00D
:100330000807A9F70E94F7090C9489100C94000093
:10034000CF93DF9360E08CE00E94BD0660E088E020
:100350000E94BD06C7E0D0E060E084E00E94BD06D8
:100360008091BB0390E00C2E02C0959587950A946E
:10037000E2F780FF02C061E001C060E088E00E9417
:10038000BD0661E084E00E94BD06219728F761E088
:100390008CE0DF91CF910C94BD06CF93DF93EC01FD
:1003A00061E08CE00E94840661E087E00E948406A0
:1003B00061E088E00E94840661E084E00E94840697
:1003C0001092BB03CE010E94A00160E087E0DF91A4
:1003D000CF910C94BD06E0E8F0E0908191689083A5
:1003E0008770886080938100109289001092880045
:1003F00061E08BE00C948406E0E9F0E09081996084
:100400009083877088608093910010929D00109275
:100410009C0061E083E00C948406E0EAF0E09081C7
:1004200091689083877088608093A1001092A900E2
:100430001092A80061E086E00C948406E0E9F0E008
:10044000908191689083877088608093910010926A
:1004500099001092980061E085E00C9484061F9347
:10046000CF93DF931F92CDB7DEB7FC01142F6083CB
:1004700041838AEB93E069830E94CD0169816230F8
:1004800041F198F4613009F044C08091BB03837F4F
:100490008093BB038AEB93E00E94A001812F0F9011
:1004A000DF91CF911F910C94EB01633011F1643017
:1004B00081F58091BB038E7B8093BB038AEB93E035
:1004C0000E94A001812F0F90DF91CF911F910C947A
:1004D0001E028091BB038D7E8093BB038AEB93E069
:1004E0000E94A001812F0F90DF91CF911F910C945A
:1004F000FC018091BB038F758093BB038AEB93E073
:100500000E94A001812F0F90DF91CF911F910C9439
:100510000D020F90DF91CF911F910895FC01808112
:10052000823091F018F4813031F00895833031F049
:10053000843039F0089573E0E2E008C077E0E5E048
:1005400005C076E0E0E002C074E0E1E06230D1F0A6
:10055000643069F1613009F040C041E050E09A0137
:10056000072E01C0220F0A94EAF720950E2E01C033
:10057000440F0A94EAF78091BB03842B282320932D
:10058000BB0327C021E030E0A9010E2E01C0440FBB
:100590000A94EAF740958091BB034823072E01C0D7
:1005A000220F0A94EAF7422B4093BB0312C081E06A
:1005B00090E0AC0101C0440FEA95EAF701C0880F52
:1005C0007A95EAF7842B80959091BB0398239093BA
:1005D000BB038AEB93E00C94A0010895FC01808199
:1005E000823079F018F4813031F00895833079F059
:1005F000843099F0089570E07093890060938800CA
:10060000089570E070939D0060939C00089570E0E1
:100610007093A9006093A800089570E0709399000A
:100620006093980008951092BA03089540E056E947
:1006300060E070E084E294E00E949B0C40E056E9A8
:1006400060E070E086E494E00E949B0C64E085ED3D
:1006500093E00E948E0264E083ED93E00E948E029C
:1006600064E081ED93E00E948E0264E08FEC93E001
:100670000C948E02EF92FF920F931F93CF93DF9310
:10068000CDB7DEB727970FB6F894DEBF0FBECDBF4C
:10069000E091CD03F091CE03F097E931F10508F038
:1006A00063C1EE58FF4F0C94FD1061E085ED93E0BF
:1006B0000E948E0261E083ED93E00E948E0261E071
:1006C00081ED93E00E948E0261E08FEC93E00E9446
:1006D0008E028091CA03813009F050C16CE072E053
:1006E0001BC062E085ED93E00E948E0262E083ED24
:1006F00093E00E948E0262E081ED93E00E948E0200
:1007000062E08FEC93E00E948E028091CA038130F8
:1007100009F034C160E272E086E494E02DC162E049
:1007200085ED93E00E948E0262E083ED93E00E94EB
:100730008E0261E081ED93E00E948E0261E08FEC19
:1007400093E00E948E028091CA03813009F016C1A5
:1007500065E372E0E1CF61E085ED93E00E948E02F7
:1007600061E083ED93E00E948E0262E081ED93E010
:100770000E948E0262E08FEC93E00E948E028091D4
:10078000CA03813009F0FAC06AE472E0C5CF64E0C0
:1007900085ED93E00E948E0264E083ED93E00E9479
:1007A0008E0264E081ED93E00E948E0264E08FECA3
:1007B00093E00E948E028091CA03813009F0DEC06E
:1007C00060E672E0A9CF63E085ED93E00E948E02BF
:1007D00063E083ED93E00E948E0263E081ED93E09D
:1007E0000E948E0263E08FEC93E00E948E02809163
:1007F000CA03813009F0C2C061E772E0BBC0E0907B
:100800000002F090010200910202109103020E1901
:100810001F098CEB93E00E94EC0924E630E040E0F5
:1008200050E00E94DE10029FB001039F700D129FE6
:10083000700D11246E0D7F1D7093CC036093CB035C
:1008400085ED93E00E94EE026091CB0383ED93E08F
:100850000E94EE026091CB0381ED93E00E94EE02D4
:100860006091CB038FEC93E00E94EE028091CA036B
:10087000813009F083C063E872E082E094E00E9476
:1008800031076091CB037091CC034AE050E082E0E5
:1008900094E00E94180869E972E06CC06CE28CEB8D
:1008A00093E00E94970990930502809304029C01B3
:1008B00040E050E06CEB73E0CE0101960E949B0992
:1008C000CE0101960E94EC09709301026093000230
:1008D000CE0101960E94740844E050E06CEB73E096
:1008E000CE0101960E94E009CE0101960E94EC091A
:1008F0007093030260930202CE0101960E94740875
:100900008091CA038130D1F56FE972E082E094E012
:100910000E94310760910002709101024AE050E0AC
:1009200082E094E00E94030864E972E082E094E0CF
:100930000E94310760910202709103024AE050E088
:1009400082E094E00E94030867EA73E013C080919C
:10095000CA03882399F06BEB72E082E094E00E9476
:100960004E0767EE72E006C08091CA03813031F411
:100970006FE673E082E094E00E944E0727960FB680
:10098000F894DEBF0FBECDBFDF91CF911F910F91C5
:10099000FF90EF90089542E061E085ED93E00E94C2
:1009A0002F0242E062E083ED93E00E942F0242E0DA
:1009B00063E081ED93E00E942F0242E064E08FEC5F
:1009C00093E00E942F026AEB72E083EC93E00E94B6
:1009D000E2086AEB72E08CEB93E00C94E2088CEB9B
:1009E00093E00E94740883EC93E00C9474081F93C6
:1009F000CF93DF93CDB7DEB727970FB6F894DEBF5E
:100A00000FBECDBF84E294E00E94040A18161906B6
:100A100044F086E494E00E94040A181619060CF0CB
:100A200061C084E294E00E94040A181619069CF43E
:100A30004BE364E274E0CE0101960E944C08BE01D3
:100A40006F5F7F4F83EC93E00E94F908CE0101961F
:100A50000E947408E6CF11E082E094E00E94040A4C
:100A600018161906ACF44BE362E074E0CE0101966F
:100A70000E944C08BE016F5F7F4F83EC93E00E94A1
:100A8000F908CE0101960E9474081093CA03E4CFBE
:100A900060E070E083EC93E00E947909992787FD7C
:100AA00090959093CE038093CD038091C70390914E
:100AB000C803029798F041E050E063EC73E0CE0188
:100AC00001960E94E009BE016F5F7F4F8CEB93E0BF
:100AD0000E94F908CE0101960E9474080E943A0310
:100AE0001092CA0327960FB6F894DEBF0FBECDBF93
:100AF000DF91CF911F9108951F920F920FB60F9221
:100B000011242F933F938F939F93AF93BF93809123
:100B1000D8039091D903A091DA03B091DB0330910F
:100B2000D70323E0230F2D3720F40196A11DB11D1B
:100B300005C026E8230F0296A11DB11D2093D703FF
:100B40008093D8039093D903A093DA03B093DB0387
:100B50008091DC039091DD03A091DE03B091DF036F
:100B60000196A11DB11D8093DC039093DD03A0933A
:100B7000DE03B093DF03BF91AF919F918F913F91BF
:100B80002F910F900FBE0F901F9018952FB7F894CC
:100B90006091D8037091D9038091DA039091DB03BF
:100BA0002FBF0895789484B5826084BD84B5816038
:100BB00084BD85B5826085BD85B5816085BDEEE665
:100BC000F0E0808181608083E1E8F0E01082808144
:100BD00082608083808181608083E0E8F0E08081B2
:100BE00081608083E1EBF0E0808184608083E0EBD2
:100BF000F0E0808181608083E1E9F0E080818260C3
:100C00008083808181608083E0E9F0E08081816081
:100C10008083E1EAF0E0808182608083808181606E
:100C20008083E0EAF0E0808181608083E1E2F1E0AE
:100C3000808182608083808181608083E0E2F1E056
:100C4000808181608083EAE7F0E080818460808336
:100C500080818260808380818160808380818068E0
:100C600080831092C100089590E0FC013197E1313A
:100C7000F10508F048C0E557FF4F0C94FD10809136
:100C800080008F7703C0809180008F7D80938000EB
:100C9000089584B58F7702C084B58F7D84BD089593
:100CA0008091B0008F7703C08091B0008F7D8093DA
:100CB000B0000895809190008F7707C080919000D8
:100CC0008F7D03C080919000877F8093900008956E
:100CD0008091A0008F7707C08091A0008F7D03C016
:100CE0008091A000877F8093A000089580912001CB
:100CF0008F7707C0809120018F7D03C080912001F4
:100D0000877F809320010895CF93DF9390E0FC01CB
:100D1000EE5EFD4F2491FC01E85AFD4F849188233B
:100D200049F190E0880F991FFC01E854FD4FA5910F
:100D3000B49182569D4FFC01C591D4919FB761112A
:100D400008C0F8948C91209582238C93888182230B
:100D50000AC0623051F4F8948C91322F309583237D
:100D60008C938881822B888304C0F8948C91822B89
:100D70008C939FBFDF91CF9108950F931F93CF93D3
:100D8000DF931F92CDB7DEB7282F30E0F901E4538F
:100D9000FE4F8491F901EE5EFD4F1491F901E85A7E
:100DA000FD4F04910023C9F0882321F069830E943C
:100DB00034066981E02FF0E0EE0FFF1FE256FD4F91
:100DC000A591B4919FB7F8948C91611103C01095CF
:100DD000812301C0812B8C939FBF0F90DF91CF9116
:100DE0001F910F910895CF92DF92EF92FF920F9390
:100DF0001F93CF93DF936C017A01EB01E60EF71E90
:100E000000E010E0CE15DF0561F06991D601ED91AB
:100E1000FC910190F081E02DC6011995080F191F72
:100E2000F1CFC801DF91CF911F910F91FF90EF900B
:100E3000DF90CF9008956115710581F0DB010D9071
:100E40000020E9F7AD0141505109461B570BDC0169
:100E5000ED91FC910280F381E02D199480E090E007
:100E600008950C941B07DC01ED91FC910190F08139
:100E7000E02D19940F931F93CF93DF93EC016DE056
:100E80000E9433078C016AE0CE010E943307800F75
:100E9000911FDF91CF911F910F9108950F931F9391
:100EA000CF93DF93EC010E941B078C01CE010E94BF
:100EB0003A07800F911FDF91CF911F910F910895F5
:100EC0008F929F92AF92BF92CF92DF92EF92FF925A
:100ED0000F931F93CF93DF93CDB7DEB7A1970FB6D4
:100EE000F894DEBF0FBECDBF7C01C42EE52FCB0131
:100EF000D22E19A221E02D1510F02AE0D22E8E015B
:100F00000F5D1F4F8D2C912CA12CB12C6C2D7E2FA1
:100F1000A50194010E94BC108C2DD29E8019112431
:100F2000015011098A3014F4805D01C0895CF80118
:100F30008083211531054105510521F0C22EE32F93
:100F4000CA01E4CFB801C7010E941B07A1960FB6E2
:100F5000F894DEBF0FBECDBFDF91CF911F910F91EF
:100F6000FF90EF90DF90CF90BF90AF909F908F90C9
:100F70000895CF92DF92EF92FF920F931F93CF933A
:100F8000DF93EC016A017B012115310579F4E881D9
:100F9000F9810190F081E02D642FDF91CF911F91B5
:100FA0000F91FF90EF90DF90CF9019942A30310588
:100FB000E9F477FF1AC06DE20E9433078C014427E1
:100FC0005527BA014C195D096E097F092AE0CE0147
:100FD0000E946007800F911FDF91CF911F910F91A9
:100FE000FF90EF90DF90CF9008952AE0B701A6011F
:100FF000CE01DF91CF911F910F91FF90EF90DF9085
:10100000CF900C9460079A01AB01662757FD60955D
:10101000762F0C94B9072115310541F4DC01ED91CF
:10102000FC910190F081E02D642F19940C946007DD
:101030009A01AB0160E070E00C940B080F931F93D2
:10104000CF93DF93EC010E94C605688779878A8772
:101050009B87E881F9810680F781E02DCE01199503
:1010600097FF15C00E94C605088519852A853B850E
:10107000601B710B820B930B0C811D812E813F81B4
:10108000601771078207930720F38FEF9FEFDF91BF
:10109000CF911F910F910895EF92FF920F931F939D
:1010A000CF93DF93EC018B01E42E6AEB72E00E9498
:1010B000E208C8010E941E08FF24E7FCF09497FD97
:1010C0000BC08E159F0541F0682FCE010E94540978
:1010D000C8010E941E08F3CFCE01DF91CF911F916E
:1010E0000F91FF90EF900895FC01808191810C9405
:1010F000D30FCF93DF93EC0188819981009711F092
:101100000E94D30F198218821D821C821B821A82B0
:10111000DF91CF9108950F931F93CF93DF93EC014D
:101120008B016F5F7F4F888199810E94520E0097DB
:1011300031F0998388831B830A8381E001C080E0BA
:10114000DF91CF911F910F910895CF93DF93EC0121
:1011500088819981892B29F08A819B81861797073D
:1011600060F4CE010E948B08882341F08C819D8120
:10117000892B19F4E881F981108281E0DF91CF9108
:101180000895EF92FF920F931F93CF93DF93EC019B
:101190007B018A01BA010E94A508811104C0CE0119
:1011A0000E94790807C01D830C83B701888199814B
:1011B0000E94A010CE01DF91CF911F910F91FF905F
:1011C000EF900895FC011182108213821282158221
:1011D000148216826115710559F0FB0101900020FF
:1011E000E9F7AF0141505109461B570B0C94C10858
:1011F0000895CF93DF93EC01FB018617970761F009
:10120000608171816115710529F0448155810E94C9
:10121000C10802C00E947908CE01DF91CF910895E4
:10122000CF93DF93EC016115710561F0FB01019033
:101230000020E9F7AF0141505109461B570B0E94AE
:10124000C10802C00E947908CE01DF91CF910895B4
:10125000EF92FF920F931F93CF93DF93EC017B01EB
:101260000C811D816115710511F480E016C04115D6
:10127000510591F0040F151FB8010E94A50888239D
:10128000A1F3288139818C819D81B701820F931F41
:101290000E94A0101D830C8381E0DF91CF911F91EC
:1012A0000F91FF90EF900895CF93DF931F921F92BD
:1012B000CDB7DEB769831A8241E050E0BE016F5FAF
:1012C0007F4F0E9428090F900F90DF91CF910895D2
:1012D000FC01248135816217730748F48081918174
:1012E000009729F0FC01E60FF71F8081089580E048
:1012F00008950C946809CF93DF93FC018481958154
:101300004817590778F4C081D181772767FD709518
:10131000CE01840F951F0E949510009719F08C1B29
:101320009D0B02C08FEF9FEFDF91CF91089540E0BA
:1013300050E00C947B09BF92CF92DF92EF92FF9224
:101340000F931F93CF93DF936C017B01EA01890117
:101350002417350720F48D2FE901042F182F6AEB8D
:1013600072E0C6010E94E208D70114968D919C910B
:1013700015978C179D07C8F08017910708F48C010A
:10138000D701ED91FC911197E00FF11FB080108211
:101390006D917C916C0F7D1FC6010E941009D701D1
:1013A000ED91FC91E00FF11FB082C601DF91CF916A
:1013B0001F910F91FF90EF90DF90CF90BF90089515
:1013C000CF93DF93EC01FB01248135810E949B09BF
:1013D000CE01DF91CF910895FC018081918100972A
:1013E00011F00C94621060E070E0CB0108950E944F
:1013F000D2050E941603CEE7DBE00E94F704209797
:10140000E1F30E947E0BF9CFFC0124853585F901BB
:10141000E05CFF4F80819181329620813181821B77
:10142000930B8F7399270895FC0184859585FC01A2
:10143000E05CFF4F4081518132962081318142171B
:10144000530741F00190F081E02DE80FF91F8081F2
:1014500090E008958FEF9FEF0895FC0184859585B6
:10146000FC01E05CFF4F4081518132962081318147
:101470004217530779F0A081B181A80FB91F8C9151
:10148000208131812F5F3F4F2F733327318320839A
:1014900090E008958FEF9FEF0895FC0181A18823CC
:1014A00029F0A489B5898C9186FFFBCF11A20895FC
:1014B000CF93DF93FC0126853785D901A05CBF4F10
:1014C0008D919C91119701968F739927E901CE5BBD
:1014D000DF4F4881598184179507D9F30D90BC914E
:1014E000A02DA20FB31F6C93A685B785A05CBF4F3C
:1014F00011969C938E93A689B7892C9181E090E0F8
:10150000078C02C0880F991F0A94E2F7282B2C93AE
:1015100081E081A30488F589E02D80818064808347
:1015200081E090E0DF91CF910895FB01E05CFF4FF7
:10153000208131812F5F3F4F2F733327DB01AE5B5B
:10154000BF4F4D915C912417350739F0A081B181CF
:10155000A60FB71F8C9331832083089508951F929F
:101560000F920FB60F9211240BB60F922F933F9349
:101570004F935F936F937F938F939F93AF93BF939B
:10158000EF93FF938091C00082FD07C08091C60059
:1015900064E476E00E94950A02C08091C600FF9143
:1015A000EF91BF91AF919F918F917F916F915F91DB
:1015B0004F913F912F910F900BBE0F900FBE0F9048
:1015C0001F90189508951F920F920FB60F92112435
:1015D0000BB60F922F933F934F935F936F937F932D
:1015E0008F939F93AF93BF93EF93FF938091C80026
:1015F00082FD07C08091CE006CEB75E00E94950AD9
:1016000002C08091CE00FF91EF91BF91AF919F9169
:101610008F917F916F915F914F913F912F910F909B
:101620000BBE0F900FBE0F901F90189508951F923C
:101630000F920FB60F9211240BB60F922F933F9378
:101640004F935F936F937F938F939F93AF93BF93CA
:10165000EF93FF938091D00082FD07C08091D60068
:1016600064E375E00E94950A02C08091D600FF9164
:10167000EF91BF91AF919F918F917F916F915F910A
:101680004F913F912F910F900BBE0F900FBE0F9077
:101690001F90189508951F920F920FB60F92112464
:1016A0000BB60F922F933F934F935F936F937F935C
:1016B0008F939F93AF93BF93EF93FF9380913001EC
:1016C00082FD07C0809136016CEA74E00E94950AA1
:1016D00002C080913601FF91EF91BF91AF919F9130
:1016E0008F917F916F915F914F913F912F910F90CB
:1016F0000BBE0F900FBE0F901F90189586E494E0DC
:101700000E94040A892B11F00E94AE0A84E294E040
:101710000E94040A892B11F00E94E20A82E094E000
:101720000E94040A892B11F00E94160B80EE93E0B0
:101730000E94040A892B11F00C944A0B08951F9201
:101740000F920FB60F9211240BB60F922F933F9367
:101750008F939F93EF93FF93209140063091410622
:1017600080914206909143062817390731F4809101
:10177000C1008F7D8093C10014C0E0914206F091BA
:101780004306E050FA4F2081809142069091430633
:1017900001968F7399279093430680934206209376
:1017A000C600FF91EF919F918F913F912F910F90E4
:1017B0000BBE0F900FBE0F901F9018951F920F92A7
:1017C0000FB60F9211240BB60F922F933F938F9366
:1017D0009F93EF93FF932091B8053091B9058091C5
:1017E000BA059091BB052817390731F48091C900DB
:1017F0008F7D8093C90014C0E091BA05F091BB05BC
:10180000E858FA4F20818091BA059091BB05019666
:101810008F7399279093BB058093BA052093CE00D0
:10182000FF91EF919F918F913F912F910F900BBE60
:101830000F900FBE0F901F9018951F920F920FB62A
:101840000F9211240BB60F922F933F938F939F9378
:10185000EF93FF932091300530913105809132054F
:10186000909133052817390731F48091D1008F7D8D
:101870008093D10014C0E0913205F0913305E0511E
:10188000FB4F2081809132059091330501968F7333
:10189000992790933305809332052093D600FF91CA
:1018A000EF919F918F913F912F910F900BBE0F90D1
:1018B0000FBE0F901F9018951F920F920FB60F92A8
:1018C00011240BB60F922F933F938F939F93EF9317
:1018D000FF932091A8043091A9048091AA049091CB
:1018E000AB042817390731F4809131018F7D809343
:1018F000310114C0E091AA04F091AB04E859FB4F08
:1019000020818091AA049091AB0401968F7399274E
:101910009093AB048093AA0420933601FF91EF913A
:101920009F918F913F912F910F900BBE0F900FBE03
:101930000F901F901895CF92DF92EF92FF92CF9366
:10194000DF93EC016A017B01411581EE58076105C7
:101950007105F9F0EC89FD8981E090E008A002C0F2
:10196000880F991F0A94E2F7808360E079E08DE3A5
:1019700090E0A70196010E94BC1021503109410955
:1019800051095695479537952795211580E13807D8
:1019900098F0EC89FD89108260E874E88EE190E0AF
:1019A000A70196010E94BC1021503109410951093B
:1019B0005695479537952795E889F9893083EA89BF
:1019C000FB89208319A2EE89FF89408181E090E0A4
:1019D0009C010C8C02C0220F331F0A94E2F7422BA9
:1019E0004083EE89FF8940819C010D8C02C0220F4B
:1019F000331F0A94E2F7422B4083EE89FF8940812E
:101A00009C010E8C02C0220F331F0A94E2F7422B76
:101A10004083EE89FF8920810F8C02C0880F991FB7
:101A20000A94E2F7809582238083DF91CF91FF9023
:101A3000EF90DF90CF900895CF93109249041092C9
:101A4000480488EE93E0A0E0B0E080934A049093CD
:101A50004B04A0934C04B0934D042DEA33E0309333
:101A600047042093460444E456E0509353044093C3
:101A7000520440E056E0509355044093540445EC22
:101A800050E0509357044093560444EC50E0509378
:101A900059044093580440EC50E050935B04409349
:101AA0005A0441EC50E050935D0440935C0442ECD6
:101AB00050E050935F0440935E0446EC50E0509336
:101AC000610440936004C4E0C0936204F3E0F093C7
:101AD0006304E7E0E093640475E07093650461E0FB
:101AE00060936604109227041092260480932804C1
:101AF00090932904A0932A04B0932B0430932504D7
:101B0000209324044CEB55E050933104409330046F
:101B100048E755E050933304409332044DEC50E0D5
:101B200050933504409334044CEC50E05093370408
:101B30004093360448EC50E0509339044093380405
:101B400049EC50E050933B0440933A044AEC50E097
:101B500050933D0440933C044EEC50E050933F04BE
:101B600040933E04C0934004F0934104E093420448
:101B7000709343046093440410920504109204048B
:101B80008093060490930704A0930804B09309047B
:101B9000309303042093020444E355E050930F0470
:101BA00040930E0440EF54E050931104409310040E
:101BB00045ED50E0509313044093120444ED50E07F
:101BC000509315044093140440ED50E050931704D3
:101BD0004093160441ED50E05093190440931804CB
:101BE00042ED50E050931B0440931A0446ED50E040
:101BF00050931D0440931C04C0931E04F0931F04D3
:101C0000E093200470932104609322041092E30374
:101C10001092E2038093E4039093E503A093E6031C
:101C2000B093E7033093E1032093E0038CEA94E060
:101C30009093ED038093EC0388E694E09093EF0398
:101C40008093EE0385E391E09093F1038093F0039A
:101C500084E391E09093F3038093F20380E391E0B7
:101C60009093F5038093F40381E391E09093F7035D
:101C70008093F60382E391E09093F9038093F80355
:101C800086E391E09093FB038093FA03C093FC03F7
:101C9000F093FD03E093FE037093FF036093000451
:101CA000CF9108956F927F928F929F92AF92BF9241
:101CB000CF92DF92EF92FF920F931F93CF93DF9318
:101CC000EC01CB01209781F4DF91CF911F910F910F
:101CD000FF90EF90DF90CF90BF90AF909F908F904C
:101CE0007F906F900C943B0FFE01E60FF71F9E0153
:101CF00022503109E217F30708F4ACC0D9010D9165
:101D00001C91119706171707B8F00530110508F454
:101D10009FC0A801445051094617570708F498C0BE
:101D200002501109061B170B019311936D937C93BD
:101D3000CF010E94D30F8CC05B01A01AB10A4E01E3
:101D4000800E911EA0918A06B0918B06612C712C99
:101D500060E070E0109709F449C0A815B905C9F50D
:101D6000ED90FC901197670142E0C40ED11CCA149B
:101D7000DB0478F147018A189B08640142E0C40E35
:101D8000D11C1296BC9012971396AC91B5E0CB166D
:101D9000D10440F0B282A38391828082D9018D93D5
:101DA0009C9309C00E5F1F4F0E0D1F1DF90111837B
:101DB0000083EB2DFA2F6115710531F0DB011396CD
:101DC000FC93EE93129744C0F0938B06E0938A063F
:101DD0003FC06D917C9111976616770608F43B0120
:101DE000BD0112960D90BC91A02DB4CF60918806D4
:101DF0007091890668157905E9F468167906D0F4BA
:101E000040910602509107024115510541F44DB72A
:101E10005EB760910A0270910B02461B570BE417E4
:101E2000F507C0F4F0938906E0938806F9019183E1
:101E300080830EC00E943B0F7C01009759F0A801DF
:101E4000BE010E948C10CE010E94D30FC70104C0B6
:101E5000CE0102C080E090E0DF91CF911F910F9101
:101E6000FF90EF90DF90CF90BF90AF909F908F90BA
:101E70007F906F900895CF93DF938230910510F497
:101E800082E090E0E0918A06F0918B0620E030E05D
:101E9000A0E0B0E0309739F14081518148175907EF
:101EA000B8F04817590771F482819381109729F08F
:101EB00013969C938E9312972CC090938B068093CD
:101EC0008A0627C02115310531F04217530718F053
:101ED000A901DB0101C0EF019A01BD01DF01028010
:101EE000F381E02DD7CF21153105F9F0281B390BEF
:101EF0002430310580F48A819B816115710521F0C0
:101F0000FB019383828304C090938B0680938A069F
:101F1000FE01329644C0FE01E20FF31F81939193BC
:101F200022503109398328833AC0209188063091A4
:101F30008906232B41F42091080230910902309345
:101F40008906209388062091060230910702211508
:101F5000310541F42DB73EB740910A0250910B0272
:101F6000241B350BE0918806F0918906E217F307F0
:101F7000A0F42E1B3F0B2817390778F0AC014E5FF9
:101F80005F4F2417350748F04E0F5F1F50938906A7
:101F9000409388068193919302C0E0E0F0E0CF0186
:101FA000DF91CF910895CF93DF93009709F487C015
:101FB000FC01329713821282C0918A06D0918B065F
:101FC000209781F420813181280F391F8091880664
:101FD000909189068217930779F5F0938906E0932B
:101FE00088066DC0DE0120E030E0AE17BF0750F478
:101FF00012964D915C9113979D014115510509F180
:10200000DA01F3CFB383A28340815181840F951FFE
:102010008A179B0771F48D919C911197840F951FDE
:1020200002969183808312968D919C91139793834E
:1020300082832115310529F4F0938B06E0938A06FB
:102040003EC0D9011396FC93EE9312974D915D918A
:10205000A40FB51FEA17FB0779F480819181840FE3
:10206000951F0296D90111969C938E93828193813C
:1020700013969C938E931297E0E0F0E08A819B8107
:10208000009719F0FE01EC01F9CFCE0102962881EC
:102090003981820F931F2091880630918906281775
:1020A000390769F4309729F410928B0610928A064A
:1020B00002C013821282D0938906C0938806DF91F2
:1020C000CF9108951F93FC0199278827BC01E894BC
:1020D00011911032E9F3193010F01E30C8F31B32A1
:1020E00051F01D3249F4689406C00E94A710610F98
:1020F000711D811D911D119110531A30B0F33EF4E2
:1021000090958095709561957F4F8F4F9F4F1F9150
:102110000895F8940C940711FB01DC0102C00190B2
:102120000D9241505040D8F70895FC0181918617D7
:1021300021F08823D9F7992708953197CF01089581
:10214000FB01DC0101900D920020E1F70895592F69
:10215000482F372F262F660F771F881F991F660F6E
:10216000771F881F991F620F731F841F951F660FAB
:10217000771F881F991F0895A1E21A2EAA1BBB1B67
:10218000FD010DC0AA1FBB1FEE1FFF1FA217B30743
:10219000E407F50720F0A21BB30BE40BF50B661F59
:1021A000771F881F991F1A9469F76095709580951D
:1021B00090959B01AC01BD01CF010895052E97FBC1
:1021C0001EF400940E94F51057FD07D00E94BC1029
:1021D00007FC03D04EF40C94F510509540953095C3
:1021E00021953F4F4F4F5F4F089590958095709583
:1021F00061957F4F8F4F9F4F0895EE0FFF1F059002
:10220000F491E02D19940790F691E02D199412E0C5
:10221000C8EDD2E000E006C022970109FE010BBF25
:102220000E940311CA3DD10780E00807A9F7F8947E
:02223000FFCFDE
:102232000000FF00000000008C0680003131204DBC
:102242006F746F72733A20666F72776172642E00D8
:102252003132204D6F746F72733A206261636B7713
:102262006172642E003133204D6F746F72733A20A5
:102272006C656674776172642E003134204D6F7420
:102282006F72733A207269676874776172642E00A4
:102292003130204D6F746F72733A2073746F702EE9
:1022A200003135204D6F746F72733A206272616B28
:1022B200652E004D6F746F72733A207365742073CC
:1022C2007065656420746F20002070776D2E004D5C
:1022D2006F746F72733A207365742070776D207219
:1022E200616E67652066726F6D200048656C703A9A
:1022F2000A557365206F6E6C792063617069746131
:102302006C206C65747465727320616E64206E75E6
:102312006D626572732E00204D6F7665733A2030C0
:10232200202D3E20666F72776172642C2031202D41
:102332003E206261636B776172642C2032202D3EF5
:10234200206C656674776172642C2033202D3E20E8
:102352007269676874776172640A2034202D3E20A6
:1023620073746F702C2035202D3E20627265616B74
:102372002C2036202D3E20736574207370656564B1
:102382002070657263656E742C2039202D3E207397
:1023920065742073706565642072616E67650030D4
:1023A20031205468697320636F6D6D616E642069BA
:1023B2007320696C6C6567616C206F722069732091
:1023C2006E6F742061737369676E656420746F2029
:1023D200616E79206A6F622E0000000000580AF3D5
:0A23E20006040A2D0A140A4D0A0031
:00000001FF
